:03000000021427C0
:0C142700787FE4F6D8FD75814502146E54
:09165A006572726F723A2564009A
:10129500C2A612166312166A121637C2A712157F56
:1012A5008E228F231215CC12151E8E248F25C3E591
:1012B500239525FFE5229524FE1213847C007D14D9
:1012C500120D578E288F297BFF7A16795A85222D84
:1012D50085232E120E88D3E5299464E5286480942D
:1012E50080500DC3E529949CE5286480947F507B4C
:1012F500C3E5239525FFE5229524FED3EF9464EEFF
:1013050064809480400F7F0A7E001216060527E54B
:101315002770020526C3E5259523FFE5249522FEC2
:10132500D3EF9464EE64809480400F7F0A7E0012B0
:1013350015EA0527E52770020526C3E5259523FF50
:10134500E5249522FEC3EF9464EE64809480501BDF
:10135500C3E5239525FFE5229524FEC3EF9464EEAE
:10136500648094805005E4F526F527C3E52794F4B9
:0F137500E526648094814002D2A6B2A70212A29C
:0C1622000A0818872AD83D084F1460E41D
:07166300C2A2D2A3D2A4220F
:1015A600C2A400D2A420A5FDC2A3AF907E00D2A300
:1015B600AD077C00EC120AA37B237ADB799C784189
:0615C6001208F8020ADC25
:10157F001215A6EF24F6FDEE34FFFC120AA37B0032
:10158F007A5079C378461208F87B007A60797978B7
:07159F0045120A01020ADCFB
:10151E00C3EF9403EE6480948050028050C3EF9426
:10152E0005EE648094805005AE08AF0922C3EF9497
:10153E0008EE648094805005AE0AAF0B22C3EF9480
:10154E000BEE648094805005AE0CAF0D22C3EF9469
:10155E000EEE648094805005AE0EAF0F22C3EF9452
:10156E0011EE648094805005AE10AF1122E4FEFFA0
:01157E00224A
:05166A00C2A0C2A12294
:1015EA00E4FDFCC3ED9FEE6480F8EC64809850093A
:0B15FA00D2A00DBD00010C80EAC2A0D1
:0116050022C2
:10160600E4FDFCC3ED9FEE6480F8EC64809850091D
:0B161600D2A10DBD00010C80EAC2A1B2
:0116210022A6
:041384008E2A8F2BF3
:10138800AC19AD1AEC120AA37BCD7ACC794C783E15
:101398001208F8C004C005C006C007AC2AAD2BEC83
:1013A800120AA3D003D002D001D000120807C0044B
:1013B800C005C006C0077F0A7ED77D237C3CAB1ED4
:1013C800AA1DA91CA81B1208F8C004C005C006C0A5
:1013D80007AC2AAD2BEC120AA3A804A905AA06ABF0
:1013E80007D007D006D005D004120A01D003D002D6
:1013F800D001D000120807120ADC8E2C8F2DE52BA5
:10140800251AF51AE52A3519F519AC2AAD2BEC126F
:0E1418000AA38F1E8E1D8D1C8C1BAE2CAF2DBB
:0114260022A3
:08162E00021600000214000086
:10163700759850758920758DFD758BFDD2ACD2AF2D
:05164700D28ED29922B1
:1015CC00AC14AD15EC120AA3E4FBFA79357843128E
:0E15DC0008F8E4FBFAF97847120A01020ADC6B
:0E164C00C2ACC2998F993099FDC299D2AC22DE
:05166F00AE0702164C5D
:030023000214B311
:1014B300C0E0C0D075D000C006C0073098548599ED
:1014C30018E513640345127014E517F516E518F5CE
:1014D30017851614851715751200751300E5136427
:1014E300024512700AF516851817F512751303AF26
:1014F300187E00EF6406700DE51364014512700554
:10150300F512751302EF64034E7005F5127513019E
:0B151300C298D007D006D0D0D0E03244
:10080000020B48E86480F8E933E83360110460F0D3
:10081000ED33EC337009E8FCE9FDEAFEEBFF22045E
:1008200060DED3EB9FEA9EE99DE8C2E78CF0C2F759
:1008300095F0400CE8CCF8E9CDF9EACEFAEBCFFB25
:10084000120B1385D0F05804700320D5B3E8047060
:10085000075002B2D5020B5292D5EC0460F7E4CCFB
:10086000C0E0C398F8603B94186008400DD0E0FBEE
:10087000020B2AE4FBFAC9FC8028E830E406E4C94C
:10088000FBE4CAFCE830E305E4C9CACBFCE8540742
:100890006010F8C3E913F9EA13FAEB13FBEC13FC4D
:1008A000D8F130F52FC3E49CFCEF9BFFEE9AFEEDF0
:1008B00099FDD0E0FBEF4E4D4C701222DB03020B92
:1008C0004FEC2CFCEF33FFEE33FEED33FDED30E764
:1008D000EB020B2AEF2BFFEE3AFEED39FDD0E0FBE9
:1008E00050130BBB0003020B52ED13FDEE13FEEF92
:0808F00013FFEC13FC020B2ABC
:1008F800EC4D6011E8497017ED33EC3304600DE4FA
:10090800FCFFFEFD22E933E8330470F8020B4812BD
:100918000B1358046009E4CC2481500628500902BE
:100928000B52284003020B4FC0E0EB4A7044B980D9
:1009380006D0E0FB020B3EEF4E701CBD8008EBFFBB
:10094800EAFEE9FD80EBE98DF0A4FEE5F00209E19D
:10095800E9CDF9EAFEEBFFEF89F0A4FCE5F0CE89DA
:10096800F0A42EFFE435F0CD89F0A42DFEE435F097
:100978008067EF4E7005BD80D780C3EF8BF0A4ACC5
:10098800F0EE8BF0A42CFCE435F0F8EF8AF0A42C00
:10099800E5F038FCE433CB8DF0A42CFCE5F03BF813
:1009A800EE8AF0A42CFCE5F038F8E433CF89F0A403
:1009B8002CFCE5F038CF3400CE89F0A42FFFE5F009
:1009C8003EFEE433C98DF0A42EFEE5F039CD8AF061
:1009D800A42FFFE5F03EFEE43DFD33D0E0FB5007D9
:1009E8000BBB000F020B52EC2CFCEF33FFEE33FE77
:0609F800ED33FD020B2AA5
:1009FE00020B52EC5D046005E859047003020B48CB
:100A0E00120B13580460F6EC4860F2EC7004FDFE15
:100A1E00FF22C860DB2481C85009C39860025006CB
:100A2E00020B4F9850CAF582E9294B4A7005AB82EA
:100A3E00020B3E75F0007C1A7880C3EF9BEE9AEDA8
:100A4E0099400DC3EF9BFFEE9AFEED99FDE842F043
:100A5E00DC23ACF0D0E0FFD0E0FED0E0FDAB822096
:100A6E00E7101BEB60BAEC2CFCEF33FFEE33FEED20
:100A7E0033FD020B2AE803F830E705C0F075F000ED
:100A8E00EF2FFFEE33FEED33FD40B830E7C280AA04
:100A9E0075F020800E75F010800575F0087D007ED3
:100AAE00007F003392D530D503120D8DEC334010FC
:100ABE00EF33FFEE33FEED33FDEC33FCD5F0ED22DC
:0E0ACE00E5F0247EA2D513CC92E7CDCEFF2218
:100ADC00EDD2E7CD33EC3392D524814006E4FFFE12
:100AEC00FDFC22FCE4CFCECDCC24E0501174FF8071
:100AFC00EDC3CC13CCCD13CDCE13CECF13CF04700E
:070B0C00F030D5DE020D8D73
:100E2600E541242DF8E6054122782A300702782D7F
:100E3600E475F001120D9B020CFF2000EB7F2ED211
:100E4600008018EF540F2490D43440D4FF30040BA4
:100E5600EF24BFB41A0050032461FFE54260021577
:100E6600420545E5457002054430070D782AE475CC
:100E7600F001120D9BEF020D4502166F7403D207A7
:100E86008003E4C207F5418B2A8A2B892CE4F542BC
:100E9600F544F545E54260077F20120E6180F57541
:100EA60043FFC201C200C202C203C205C206C20893
:100EB600120E2FFF700D3007057F00120E72AF4520
:100EC600AE4422B4255FC2D5C204120E2FFF24D031
:100ED600B40A00501A75F00A784230D50508B6FFF4
:100EE6000106C6A426F620D5047002D20380D924B2
:100EF600CFB41A00EF5004C2E5D20402115FD2014A
:100F060080C6D20080C0D20280BCD2D580BAD205BB
:100F160080B47F20120E612002077401B5420040A2
:100F2600F1120E26FF120E61020E9AD208D2068028
:100F360095120E26FB120E26FA120E26F94A4B7051
:100F46000679567A127BFF20022EE542602A7E0041
:100F56008E82758300120D1860060EEE654370F0E2
:100F6600C2D5EBC0E0EAC0E0E9C0E0EE1211BFD0A6
:100F7600E0F9D0E0FAD0E0FB120CFFFF60AAEBC06C
:100F8600E0EAC0E0E9C0E0120E61D0E02401F9D049
:100F9600E03400FAD0E0FBE5430460DCD543D980B9
:100FA60087D20280A21211A260F7E54370010412F3
:100FB6000B5DA943600DE543600914F54312124920
:100FC600EF60F3EA30E702F404C3995077EAF425B8
:100FD600430430E701E404F543800D1211A260C119
:100FE600EA05432543120B5DEA7840F630E701E453
:100FF600254304D54304200501141211BFE4C0E0C3
:101006001212497840E6601320E70714F6120E49DB
:10101600802204F6D0E014C0E07F00120E49E543BA
:101026006007120E401543800B300503120E40D0A8
:10103600E0020E9AD0E00480C51211A260A0E5433A
:1010460004120B5D7840EAF6E543200502600104D0
:0510560024041211BF8B
:10105B0074FF04C0E0121249120E49E54320050249
:10106B006003120E40D0E0B543E87F45120E537873
:10107B0040E67F2B30E7047F2DF404C0E0120E61B5
:10108B00D0E075F00A84C0F0120E4AD0E0120E4A7E
:10109B00020E9A791080027908C206C2088008D223
:1010AB00D5790A8004790AC2D5E543047002F54369
:1010BB00E4FAFDFEFF120E26FC7B08200113120E34
:1010CB0026FD7B1030000A120E26FE120E26FF7B29
:1010DB0020EC3382D592D55013C3E43000069FFF2A
:1010EB00E49EFEE42001039DFDE49CFCE4CBF8C2EE
:1010FB0001EC700CCFCECDCCE824F8F870F3801750
:10110B00C3EF33FFEE33FEED33FDEC33FCEB33FB80
:10111B00994002FB0FD8E9EB300105F8D0E0C44849
:10112B00B201C0E00AEC4D4E4F78207B0070C2EA52
:10113B00B5430040BCC0E01211C1D0F0D0E020019B
:10114B0004C4C0E0C4B201C0F0120E4AD0F0D5F016
:10115B00EB020E9A120DAB0F3753109E580F084C23
:10116B000F044210A24F10AA4410AA490F1D43109E
:10117B00B0550FE146103F450FAB471276500F0CA1
:10118B002D0F102E0F332B0F14230F3120125F2A2C
:10119B000ECC4800000F2BE543B4FF03754306123A
:1011AB000E26FC120E26FD120E26FE120E26FF78C0
:1011BB0039020B8C790AA2D5200314300509B9101A
:1011CB00020404B9080104A2D52006025001042030
:1011DB0002689202B542005034C0E07F2030031900
:1011EB007F30A20272067205500F121218C202C291
:1011FB0006C205C2087F30800F300503E9C0E0123C
:10120B000E61300503D0E0F9D0E0B542CC300517C4
:10121B007F30B9100C120E617F583004077F788035
:10122B0003B90803120E613002057F2D020E617F98
:10123B00202008F87F2B2006F322920280CF7F001C
:10124B00B4070050052439F8E6FF22286E756C6C44
:10125B002900D201120E263001F8C201784230D596
:10126B000108F6020ECC2D50434958120E262403CA
:10127B00B405004001E490127193120E52743A12AD
:0A128B000E52D20375420402109EB9
:100B1300E9D2E7C933E833F892D5EDD2E7CD33EC28
:070B230033FC5002B2D522A1
:100B2A00EC30E7100FBF000C0EBE00080DBD00042C
:100B3A000BEB6014A2D5EB13FCED92E7FD2274FFD8
:100B4A00FCFDFEFF22E480F8A2D574FF13FC7D8031
:030B5A00E480EF45
:100B5D00F920E72824F950037907E4F42402FB185F
:100B6D00DBFDE624FB5014E9600DE4F618E604F60F
:0F0B7D00B40A08E4F6D9F57401F60A22C2D522AB
:100B8C00ED33EC3392D5FA602AB4FF33EDC2E77B38
:100B9C00FF60067A0B79B1E4227A0B79BA20D5047E
:100BAC007A0B79B5224E614E002B494E46002D49E9
:100BBC004E4600E47A08F608DAFC7B00740722E85B
:100BCC00C0E0ECC0E0EDC0E0EEC0E0EFC0E0EA75E4
:100BDC00F010A4CAABF075F04DA42BFBE435F0FC7F
:100BEC00EA2410FAEB34C5FBEC34D9FCEDC2E7FF78
:100BFC0075F056A4F42411C5F0F434C58FF0A42A72
:100C0C00E5F03BE43CF620E714120CBFD0E0FFD03B
:100C1C00E0FED0E0FDD0E0FC120A018014F40412D6
:100C2C000CBFD0E0FFD0E0FED0E0FDD0E0FC12081D
:100C3C00F8D0E0F8E6FAEDD2E7CD33EC332482FBC2
:100C4C00E4C3CF33CFCE33CECD33CD33DBF37B0701
:100C5C0075F00A846004F6081B0AE5F0F6088FF0BC
:100C6C00740AA4FFACF08EF0740AA42CFEACF05005
:100C7C00010C8DF0740AA42CFDE435F0F608DBDED3
:030C8C00740722C8
:100C8F003F8000004120000042C80000447A00006D
:100C9F00461C400047C35000497424004B189680EF
:100CAF004CBEBC205A0E1BCA6753C21C749DC5AEE6
:100CBF00FB60065407601C2323120CEDEB543860C5
:100CCF0009120CD9120CE81208F8ECF8EDF9EEFA4B
:100CDF00EFCB22EB120CE880F1543803241C900C5C
:100CEF008FFE93FC0EEE93FD0EEE930ECE93FF222E
:10143300021295E493A3F8E493A34003F68001F228
:1014430008DFF48029E493A3F85407240CC8C333BA
:10145300C4540F4420C8834004F456800146F6DF89
:10146300E4800B0102040810204080901622E47EE1
:10147300019360BCA3FF543F30E509541FFEE4937E
:10148300A360010ECF54C025E060A840B8E493A345
:10149300FAE493A3F8E493A3C8C582C8CAC583CA70
:1014A300F0A3C8C582C8CAC583CADFE9DEE780BE28
:0116360000B3
:100CFF00BB010689828A83E0225002E722BBFE02F3
:090D0F00E32289828A83E4932225
:100D1800BB010CE58229F582E5833AF583E0225090
:100D280006E92582F8E622BBFE06E92582F8E222DA
:0D0D3800E58229F582E5833AF583E49322F4
:100D4500BB010689828A83F0225002F722BBFE018D
:020D5500F32287
:100D5700C2D5EC30E709B2D5E4C39DFDE49CFCEEB7
:100D670030E715B2D5E4C39FFFE49EFE120DD1C351
:100D7700E49DFDE49CFC8003120DD130D507C3E44C
:060D87009FFFE49EFE2226
:0E0D8D00C3E49FFFE49EFEE49DFDE49CFC2277
:100D9B00FAE6FB0808E6F925F0F618E6CA3AF62259
:100DAB00D083D082F8E4937012740193700DA3A3D7
:100DBB0093F8740193F5828883E4737402936860EB
:060DCB00EFA3A3A380DFEB
:100DD100BC000BBE0029EF8DF084FFADF022E4CC06
:100DE100F875F008EF2FFFEE33FEEC33FCEE9DECCF
:100DF100984005FCEE9DFE0FD5F0E9E4CEFD22ED15
:100E0100F8F5F0EE8420D21CFEADF075F008EF2F5E
:100E1100FFED33FD4007985006D5F0F222C398FD4F
:050E21000FD5F0EA22EC
:00000001FF
